{
  "contractName": "DappToken",
  "abi": [
    {
      "inputs": [],
      "name": "totalSupply",
      "outputs": [
        {
          "internalType": "uint256",
          "name": "",
          "type": "uint256"
        }
      ],
      "stateMutability": "view",
      "type": "function",
      "constant": true
    },
    {
      "inputs": [],
      "name": "DappTokens",
      "outputs": [],
      "stateMutability": "nonpayable",
      "type": "function"
    }
  ],
  "bytecode": "0x608060405234801561001057600080fd5b5060d18061001f6000396000f3fe6080604052348015600f57600080fd5b506004361060325760003560e01c806318160ddd1460375780639b5c535d146051575b600080fd5b603d6059565b604051604891906082565b60405180910390f35b6057605f565b005b60005481565b620f4240600081905550565b6000819050919050565b607c81606b565b82525050565b6000602082019050609560008301846075565b9291505056fea2646970667358221220395a8b9dde30a1804bada64635466b1f243beb40e6be22a0c7c97e358f62550064736f6c634300080a0033",
  "immutableReferences": {},
  "source": "// SPDX-License-Identifier: MIT\r\npragma solidity >=0.4.22 <0.9.0;\r\n\r\ncontract DappToken {\r\n    // Constructor\r\n    // Set the total number of tokens\r\n    // Read the total number of tokens\r\n    uint256 public totalSupply;\r\n\r\n    function DappTokens () public {\r\n        totalSupply = 1000000;\r\n    }\r\n}\r\n",
  "sourcePath": "C:\\my stuff\\Porjects\\token_sale\\contracts\\DappToken.sol",
  "compiler": {
    "name": "solc",
    "version": "0.8.10+commit.fc410830.Emscripten.clang"
  },
  "schemaVersion": "3.4.4",
  "updatedAt": "2021-12-23T01:52:54.310Z",
  "networkType": "ethereum",
  "devdoc": {
    "kind": "dev",
    "methods": {},
    "version": 1
  },
  "userdoc": {
    "kind": "user",
    "methods": {},
    "version": 1
  }
}